{
  "contractName": "votingSystem",
  "abi": [
    {
      "inputs": [
        {
          "internalType": "string",
          "name": "_name",
          "type": "string"
        },
        {
          "internalType": "uint8",
          "name": "_level",
          "type": "uint8"
        },
        {
          "internalType": "uint8",
          "name": "_electionType",
          "type": "uint8"
        }
      ],
      "stateMutability": "nonpayable",
      "type": "constructor"
    },
    {
      "inputs": [
        {
          "internalType": "uint8",
          "name": "index",
          "type": "uint8"
        }
      ],
      "name": "vote",
      "outputs": [],
      "stateMutability": "nonpayable",
      "type": "function"
    },
    {
      "inputs": [
        {
          "internalType": "string",
          "name": "_name",
          "type": "string"
        },
        {
          "internalType": "uint8",
          "name": "_age",
          "type": "uint8"
        },
        {
          "internalType": "uint256",
          "name": "_aadharNumber",
          "type": "uint256"
        },
        {
          "internalType": "uint256",
          "name": "_phone",
          "type": "uint256"
        }
      ],
      "name": "registerVoter",
      "outputs": [],
      "stateMutability": "nonpayable",
      "type": "function"
    },
    {
      "inputs": [
        {
          "internalType": "string",
          "name": "_name",
          "type": "string"
        },
        {
          "internalType": "string",
          "name": "_party",
          "type": "string"
        },
        {
          "internalType": "uint8",
          "name": "_age",
          "type": "uint8"
        },
        {
          "internalType": "uint256",
          "name": "_aadharNumber",
          "type": "uint256"
        }
      ],
      "name": "registerCandidate",
      "outputs": [],
      "stateMutability": "payable",
      "type": "function"
    },
    {
      "inputs": [
        {
          "internalType": "address",
          "name": "_address",
          "type": "address"
        }
      ],
      "name": "approveCandidate",
      "outputs": [],
      "stateMutability": "nonpayable",
      "type": "function"
    },
    {
      "inputs": [
        {
          "internalType": "string",
          "name": "_name",
          "type": "string"
        },
        {
          "internalType": "string",
          "name": "_party",
          "type": "string"
        },
        {
          "internalType": "uint8",
          "name": "_age",
          "type": "uint8"
        },
        {
          "internalType": "address",
          "name": "_address",
          "type": "address"
        }
      ],
      "name": "addCandidate",
      "outputs": [],
      "stateMutability": "nonpayable",
      "type": "function"
    },
    {
      "inputs": [
        {
          "internalType": "address",
          "name": "votersAddress",
          "type": "address"
        }
      ],
      "name": "approveVoter",
      "outputs": [],
      "stateMutability": "nonpayable",
      "type": "function"
    }
  ],
  "bytecode": "0x60806040523480156200001157600080fd5b5060405162001ae238038062001ae283398181016040528101906200003791906200049e565b336000806101000a81548173ffffffffffffffffffffffffffffffffffffffff021916908373ffffffffffffffffffffffffffffffffffffffff16021790555060028260ff161115620000c1576040517f08c379a0000000000000000000000000000000000000000000000000000000008152600401620000b8906200057a565b60405180910390fd5b60018160ff1611156200010b576040517f08c379a000000000000000000000000000000000000000000000000000000000815260040162000102906200057a565b60405180910390fd5b60405180606001604052808481526020018360ff1660028111156200013557620001346200059c565b5b60028111156200014a57620001496200059c565b5b81526020018260ff1660018111156200016857620001676200059c565b5b60018111156200017d576200017c6200059c565b5b81525060056000820151816000019080519060200190620001a092919062000213565b5060208201518160010160006101000a81548160ff02191690836002811115620001cf57620001ce6200059c565b5b021790555060408201518160010160016101000a81548160ff021916908360018111156200020257620002016200059c565b5b021790555090505050505062000630565b8280546200022190620005fa565b90600052602060002090601f01602090048101928262000245576000855562000291565b82601f106200026057805160ff191683800117855562000291565b8280016001018555821562000291579182015b828111156200029057825182559160200191906001019062000273565b5b509050620002a09190620002a4565b5090565b5b80821115620002bf576000816000905550600101620002a5565b5090565b6000604051905090565b600080fd5b600080fd5b600080fd5b600080fd5b6000601f19601f8301169050919050565b7f4e487b7100000000000000000000000000000000000000000000000000000000600052604160045260246000fd5b6200032c82620002e1565b810181811067ffffffffffffffff821117156200034e576200034d620002f2565b5b80604052505050565b600062000363620002c3565b905062000371828262000321565b919050565b600067ffffffffffffffff821115620003945762000393620002f2565b5b6200039f82620002e1565b9050602081019050919050565b60005b83811015620003cc578082015181840152602081019050620003af565b83811115620003dc576000848401525b50505050565b6000620003f9620003f38462000376565b62000357565b905082815260208101848484011115620004185762000417620002dc565b5b62000425848285620003ac565b509392505050565b600082601f830112620004455762000444620002d7565b5b815162000457848260208601620003e2565b91505092915050565b600060ff82169050919050565b620004788162000460565b81146200048457600080fd5b50565b60008151905062000498816200046d565b92915050565b600080600060608486031215620004ba57620004b9620002cd565b5b600084015167ffffffffffffffff811115620004db57620004da620002d2565b5b620004e9868287016200042d565b9350506020620004fc8682870162000487565b92505060406200050f8682870162000487565b9150509250925092565b600082825260208201905092915050565b7f4f7574206f6620626f756e640000000000000000000000000000000000000000600082015250565b600062000562600c8362000519565b91506200056f826200052a565b602082019050919050565b60006020820190508181036000830152620005958162000553565b9050919050565b7f4e487b7100000000000000000000000000000000000000000000000000000000600052602160045260246000fd5b7f4e487b7100000000000000000000000000000000000000000000000000000000600052602260045260246000fd5b600060028204905060018216806200061357607f821691505b602082108114156200062a5762000629620005cb565b5b50919050565b6114a280620006406000396000f3fe6080604052600436106100555760003560e01c806307be7e911461005a578063119d4ddb1461008357806318abf078146100ac57806390ad9eb2146100d557806392434d7c146100fe578063b3f98adc1461011a575b600080fd5b34801561006657600080fd5b50610081600480360381019061007c9190610bf7565b610143565b005b34801561008f57600080fd5b506100aa60048036038101906100a59190610bf7565b6102fd565b005b3480156100b857600080fd5b506100d360048036038101906100ce9190610dd9565b610545565b005b3480156100e157600080fd5b506100fc60048036038101906100f79190610e5c565b610652565b005b61011860048036038101906101139190610efb565b6107a6565b005b34801561012657600080fd5b50610141600480360381019061013c9190610f9a565b610977565b005b6000600281111561015757610156610fc7565b5b600460008373ffffffffffffffffffffffffffffffffffffffff1673ffffffffffffffffffffffffffffffffffffffff16815260200190815260200160002060040160009054906101000a900460ff1660028111156101b9576101b8610fc7565b5b146101f9576040517f08c379a00000000000000000000000000000000000000000000000000000000081526004016101f090611053565b60405180910390fd5b601e600460008373ffffffffffffffffffffffffffffffffffffffff1673ffffffffffffffffffffffffffffffffffffffff16815260200190815260200160002060020160009054906101000a900460ff1660ff16101561028f576040517f08c379a0000000000000000000000000000000000000000000000000000000008152600401610286906110bf565b60405180910390fd5b6001600460008373ffffffffffffffffffffffffffffffffffffffff1673ffffffffffffffffffffffffffffffffffffffff16815260200190815260200160002060040160006101000a81548160ff021916908360028111156102f5576102f4610fc7565b5b021790555050565b3373ffffffffffffffffffffffffffffffffffffffff1660008054906101000a900473ffffffffffffffffffffffffffffffffffffffff1673ffffffffffffffffffffffffffffffffffffffff161461038b576040517f08c379a000000000000000000000000000000000000000000000000000000000815260040161038290611151565b60405180910390fd5b6000600281111561039f5761039e610fc7565b5b600360008373ffffffffffffffffffffffffffffffffffffffff1673ffffffffffffffffffffffffffffffffffffffff16815260200190815260200160002060040160009054906101000a900460ff16600281111561040157610400610fc7565b5b14610441576040517f08c379a0000000000000000000000000000000000000000000000000000000008152600401610438906111e3565b60405180910390fd5b6012600360008373ffffffffffffffffffffffffffffffffffffffff1673ffffffffffffffffffffffffffffffffffffffff16815260200190815260200160002060010160009054906101000a900460ff1660ff1610156104d7576040517f08c379a00000000000000000000000000000000000000000000000000000000081526004016104ce9061124f565b60405180910390fd5b6001600360008373ffffffffffffffffffffffffffffffffffffffff1673ffffffffffffffffffffffffffffffffffffffff16815260200190815260200160002060040160006101000a81548160ff0219169083600281111561053d5761053c610fc7565b5b021790555050565b60006040518060a001604052808681526020018560ff1681526020018481526020018381526020016000600281111561058157610580610fc7565b5b815250905080600360003373ffffffffffffffffffffffffffffffffffffffff1673ffffffffffffffffffffffffffffffffffffffff16815260200190815260200160002060008201518160000190805190602001906105e2929190610ae2565b5060208201518160010160006101000a81548160ff021916908360ff160217905550604082015181600201556060820151816003015560808201518160040160006101000a81548160ff0219169083600281111561064357610642610fc7565b5b02179055509050505050505050565b3373ffffffffffffffffffffffffffffffffffffffff1660008054906101000a900473ffffffffffffffffffffffffffffffffffffffff1673ffffffffffffffffffffffffffffffffffffffff16146106e0576040517f08c379a00000000000000000000000000000000000000000000000000000000081526004016106d790611151565b60405180910390fd5b6000600460008373ffffffffffffffffffffffffffffffffffffffff1673ffffffffffffffffffffffffffffffffffffffff16815260200190815260200160002090508481600001908051906020019061073b929190610ae2565b5083816001019080519060200190610754929190610ae2565b50828160020160006101000a81548160ff021916908360ff16021790555060018160040160006101000a81548160ff0219169083600281111561079a57610799610fc7565b5b02179055505050505050565b60006040518060a001604052808681526020018581526020018460ff168152602001838152602001600060028111156107e2576107e1610fc7565b5b815250905080600460003373ffffffffffffffffffffffffffffffffffffffff1673ffffffffffffffffffffffffffffffffffffffff1681526020019081526020016000206000820151816000019080519060200190610843929190610ae2565b506020820151816001019080519060200190610860929190610ae2565b5060408201518160020160006101000a81548160ff021916908360ff1602179055506060820151816003015560808201518160040160006101000a81548160ff021916908360028111156108b7576108b6610fc7565b5b0217905550905050670de0b6b3a76400003414610909576040517f08c379a0000000000000000000000000000000000000000000000000000000008152600401610900906112e1565b60405180910390fd5b60008054906101000a900473ffffffffffffffffffffffffffffffffffffffff1673ffffffffffffffffffffffffffffffffffffffff166108fc349081150290604051600060405180830381858888f1935050505015801561096f573d6000803e3d6000fd5b505050505050565b6001600281111561098b5761098a610fc7565b5b600360003373ffffffffffffffffffffffffffffffffffffffff1673ffffffffffffffffffffffffffffffffffffffff16815260200190815260200160002060040160009054906101000a900460ff1660028111156109ed576109ec610fc7565b5b14610a2d576040517f08c379a0000000000000000000000000000000000000000000000000000000008152600401610a2490611373565b60405180910390fd5b600260008260ff1660ff1681526020019081526020016000206000815480929190610a57906113c2565b919050555060076000815480929190610a6f906113c2565b91905055506002600360003373ffffffffffffffffffffffffffffffffffffffff1673ffffffffffffffffffffffffffffffffffffffff16815260200190815260200160002060040160006101000a81548160ff02191690836002811115610ada57610ad9610fc7565b5b021790555050565b828054610aee9061143a565b90600052602060002090601f016020900481019282610b105760008555610b57565b82601f10610b2957805160ff1916838001178555610b57565b82800160010185558215610b57579182015b82811115610b56578251825591602001919060010190610b3b565b5b509050610b649190610b68565b5090565b5b80821115610b81576000816000905550600101610b69565b5090565b6000604051905090565b600080fd5b600080fd5b600073ffffffffffffffffffffffffffffffffffffffff82169050919050565b6000610bc482610b99565b9050919050565b610bd481610bb9565b8114610bdf57600080fd5b50565b600081359050610bf181610bcb565b92915050565b600060208284031215610c0d57610c0c610b8f565b5b6000610c1b84828501610be2565b91505092915050565b600080fd5b600080fd5b6000601f19601f8301169050919050565b7f4e487b7100000000000000000000000000000000000000000000000000000000600052604160045260246000fd5b610c7782610c2e565b810181811067ffffffffffffffff82111715610c9657610c95610c3f565b5b80604052505050565b6000610ca9610b85565b9050610cb58282610c6e565b919050565b600067ffffffffffffffff821115610cd557610cd4610c3f565b5b610cde82610c2e565b9050602081019050919050565b82818337600083830152505050565b6000610d0d610d0884610cba565b610c9f565b905082815260208101848484011115610d2957610d28610c29565b5b610d34848285610ceb565b509392505050565b600082601f830112610d5157610d50610c24565b5b8135610d61848260208601610cfa565b91505092915050565b600060ff82169050919050565b610d8081610d6a565b8114610d8b57600080fd5b50565b600081359050610d9d81610d77565b92915050565b6000819050919050565b610db681610da3565b8114610dc157600080fd5b50565b600081359050610dd381610dad565b92915050565b60008060008060808587031215610df357610df2610b8f565b5b600085013567ffffffffffffffff811115610e1157610e10610b94565b5b610e1d87828801610d3c565b9450506020610e2e87828801610d8e565b9350506040610e3f87828801610dc4565b9250506060610e5087828801610dc4565b91505092959194509250565b60008060008060808587031215610e7657610e75610b8f565b5b600085013567ffffffffffffffff811115610e9457610e93610b94565b5b610ea087828801610d3c565b945050602085013567ffffffffffffffff811115610ec157610ec0610b94565b5b610ecd87828801610d3c565b9350506040610ede87828801610d8e565b9250506060610eef87828801610be2565b91505092959194509250565b60008060008060808587031215610f1557610f14610b8f565b5b600085013567ffffffffffffffff811115610f3357610f32610b94565b5b610f3f87828801610d3c565b945050602085013567ffffffffffffffff811115610f6057610f5f610b94565b5b610f6c87828801610d3c565b9350506040610f7d87828801610d8e565b9250506060610f8e87828801610dc4565b91505092959194509250565b600060208284031215610fb057610faf610b8f565b5b6000610fbe84828501610d8e565b91505092915050565b7f4e487b7100000000000000000000000000000000000000000000000000000000600052602160045260246000fd5b600082825260208201905092915050565b7f43616e646964617465206e6f7420726567697374657265640000000000000000600082015250565b600061103d601883610ff6565b915061104882611007565b602082019050919050565b6000602082019050818103600083015261106c81611030565b9050919050565b7f43616e646964617465206973206e6f7420656c696769626c6500000000000000600082015250565b60006110a9601983610ff6565b91506110b482611073565b602082019050919050565b600060208201905081810360008301526110d88161109c565b9050919050565b7f4f6e6c792061646d696e6973747261746f72732068617665207468652061636360008201527f65737320746f207468697320616374696f6e0000000000000000000000000000602082015250565b600061113b603283610ff6565b9150611146826110df565b604082019050919050565b6000602082019050818103600083015261116a8161112e565b9050919050565b7f4569746865722074686520766f746572206973206e6f7420726567697374657260008201527f6564206f7220616c726561647920617070726f76656400000000000000000000602082015250565b60006111cd603683610ff6565b91506111d882611171565b604082019050919050565b600060208201905081810360008301526111fc816111c0565b9050919050565b7f4e6f7420616e20656c696769626c6520766f7465720000000000000000000000600082015250565b6000611239601583610ff6565b915061124482611203565b602082019050919050565b600060208201905081810360008301526112688161122c565b9050919050565b7f416d6f756e742073686f756c642062652065786163746c7920657175616c207460008201527f6f20312045544845520000000000000000000000000000000000000000000000602082015250565b60006112cb602983610ff6565b91506112d68261126f565b604082019050919050565b600060208201905081810360008301526112fa816112be565b9050919050565b7f45697468657220796f75206e6f742072656769737465726564206f7220616c7260008201527f6561647920766f74656400000000000000000000000000000000000000000000602082015250565b600061135d602a83610ff6565b915061136882611301565b604082019050919050565b6000602082019050818103600083015261138c81611350565b9050919050565b7f4e487b7100000000000000000000000000000000000000000000000000000000600052601160045260246000fd5b60006113cd82610da3565b91507fffffffffffffffffffffffffffffffffffffffffffffffffffffffffffffffff821415611400576113ff611393565b5b600182019050919050565b7f4e487b7100000000000000000000000000000000000000000000000000000000600052602260045260246000fd5b6000600282049050600182168061145257607f821691505b602082108114156114665761146561140b565b5b5091905056fea2646970667358221220b3f858225461a6119a67668bb1fe814e2e0322e6c6270817740de841e3f9849a64736f6c634300080c0033",
  "immutableReferences": {},
  "source": "// SPDX-License-Identifier: MIT\r\npragma solidity >=0.6.0 <0.9.0;\r\n\r\ncontract votingSystem {\r\n\r\n    address payable administrator;\r\n    enum Status {registered, approved, voted}\r\n    uint8 candidateNumber;\r\n    mapping (address => bool) registeredList;\r\n    mapping (uint8 => uint) voteCount;\r\n    // mapping (address => Status) voters;\r\n    mapping (address => Voter) voters;\r\n    // mapping (int8 => Candidate) candidates;\r\n    mapping (address => Candidate) candidates;\r\n    Election electionInfo;\r\n    \r\n    enum Level {local, state, country}\r\n    enum ElectionType {regular, filling}\r\n     //false once voted or if changed the address\r\n    uint totalVote;\r\n\r\n    struct Candidate {\r\n        string name;\r\n        string party;\r\n        uint8 age;\r\n        uint aadharNumber;\r\n        Status candidateStatus;\r\n        // address candidateAddress;\r\n    }\r\n\r\n    struct Election {\r\n        string name;\r\n        Level level;\r\n        ElectionType electionType;\r\n    }\r\n\r\n    modifier onlyAdmin {\r\n        require(administrator == msg.sender, \"Only administrators have the access to this action\");\r\n        _;\r\n    }\r\n\r\n// take the election info during construction of the contract\r\n    constructor(string memory _name, uint8 _level, uint8 _electionType) {\r\n        administrator = payable(msg.sender);\r\n        require(_level <= 2, \"Out of bound\");\r\n        require(_electionType <= 1, \"Out of bound\");\r\n        electionInfo = Election(_name, Level(_level), ElectionType(_electionType));\r\n    }\r\n\r\n    function vote(uint8 index) public {\r\n        require(voters[msg.sender].currStatus == Status.approved, \"Either you not registered or already voted\");\r\n        voteCount[index]++;\r\n        totalVote++;\r\n        voters[msg.sender].currStatus = Status.voted;\r\n    }\r\n\r\n    // RETHINK: need to have voter's information in the blockchain or not\r\n    struct Voter {\r\n        string name;\r\n        uint8 age;\r\n        uint aadharNumber;\r\n        uint phoneNumber;\r\n        Status currStatus;\r\n    }\r\n\r\n    // can a person register more than once with this function ?\r\n    function registerVoter(string memory _name, uint8 _age, uint _aadharNumber, uint _phone) public {\r\n        Voter memory newVoter = Voter(_name, _age, _aadharNumber, _phone, Status.registered);\r\n        voters[msg.sender] = newVoter;\r\n    }\r\n\r\n    function registerCandidate(string memory _name, string memory _party, uint8 _age, uint _aadharNumber) public payable {\r\n        //create candidate\r\n        Candidate memory newCandidate = Candidate(_name, _party, _age, _aadharNumber, Status.registered);\r\n        candidates[msg.sender] = newCandidate;\r\n        require(msg.value == 1 ether, \"Amount should be exactly equal to 1 ETHER\");\r\n        administrator.transfer(msg.value);\r\n    } \r\n\r\n    function approveCandidate(address _address) public {\r\n        // after approving candidate add them in a seperate place with an ID\r\n        require(candidates[_address].candidateStatus == Status.registered,\"Candidate not registered\");\r\n        require(candidates[_address].age >= 30, \"Candidate is not eligible\");\r\n        candidates[_address].candidateStatus = Status.approved;\r\n    }\r\n\r\n    // should I also add register candidate and then approveCandidate or just addCandidate\r\n    // ----> Need to remove this probably\r\n    function addCandidate(string memory _name, string memory _party, uint8 _age, address _address) public onlyAdmin{\r\n        // Candidate storage newCandidate = candidates[candidateNumber];\r\n        Candidate storage newCandidate = candidates[_address];\r\n        newCandidate.name = _name;\r\n        newCandidate.party = _party;\r\n        newCandidate.age = _age;\r\n        // newCandidate.candidateAddress = _address;\r\n        newCandidate.candidateStatus = Status.approved;\r\n    }\r\n\r\n    function approveVoter(address votersAddress) public onlyAdmin{\r\n        require(voters[votersAddress].currStatus == Status.registered, \"Either the voter is not registered or already approved\");\r\n        require(voters[votersAddress].age >= 18, \"Not an eligible voter\");\r\n        voters[votersAddress].currStatus = Status.approved;\r\n    }\r\n\r\n}",
  "sourcePath": "E:\\Shashank.summer\\Shashank\\voting-system\\voting-contract\\contracts\\VotingSystem.sol",
  "compiler": {
    "name": "solc",
    "version": "0.8.12+commit.f00d7308.Emscripten.clang"
  },
  "schemaVersion": "3.4.5",
  "updatedAt": "2022-04-05T16:50:19.407Z",
  "devdoc": {
    "kind": "dev",
    "methods": {},
    "version": 1
  },
  "userdoc": {
    "kind": "user",
    "methods": {},
    "version": 1
  }
}